{
  "_format": "hh-sol-artifact-1",
  "contractName": "CrowdFunding",
  "sourceName": "contracts/CrowdFunding.sol",
  "abi": [
    {
      "inputs": [],
      "stateMutability": "nonpayable",
      "type": "constructor"
    },
    {
      "anonymous": false,
      "inputs": [
        {
          "indexed": true,
          "internalType": "uint256",
          "name": "campaignId",
          "type": "uint256"
        },
        {
          "indexed": true,
          "internalType": "address",
          "name": "owner",
          "type": "address"
        }
      ],
      "name": "CampaignCreated",
      "type": "event"
    },
    {
      "anonymous": false,
      "inputs": [
        {
          "indexed": true,
          "internalType": "uint256",
          "name": "campaignId",
          "type": "uint256"
        },
        {
          "indexed": true,
          "internalType": "address",
          "name": "donor",
          "type": "address"
        },
        {
          "indexed": false,
          "internalType": "uint256",
          "name": "amount",
          "type": "uint256"
        }
      ],
      "name": "DonationReceived",
      "type": "event"
    },
    {
      "anonymous": false,
      "inputs": [
        {
          "indexed": true,
          "internalType": "uint256",
          "name": "campaignId",
          "type": "uint256"
        },
        {
          "indexed": false,
          "internalType": "uint256",
          "name": "milestoneNumber",
          "type": "uint256"
        },
        {
          "indexed": false,
          "internalType": "uint256",
          "name": "amountReleased",
          "type": "uint256"
        }
      ],
      "name": "MilestoneApproved",
      "type": "event"
    },
    {
      "anonymous": false,
      "inputs": [
        {
          "indexed": true,
          "internalType": "uint256",
          "name": "campaignId",
          "type": "uint256"
        },
        {
          "indexed": false,
          "internalType": "uint256",
          "name": "milestoneNumber",
          "type": "uint256"
        }
      ],
      "name": "MilestoneRejected",
      "type": "event"
    },
    {
      "anonymous": false,
      "inputs": [
        {
          "indexed": true,
          "internalType": "uint256",
          "name": "campaignId",
          "type": "uint256"
        },
        {
          "indexed": false,
          "internalType": "uint256",
          "name": "milestoneNumber",
          "type": "uint256"
        }
      ],
      "name": "MilestoneSubmitted",
      "type": "event"
    },
    {
      "anonymous": false,
      "inputs": [
        {
          "indexed": true,
          "internalType": "uint256",
          "name": "campaignId",
          "type": "uint256"
        },
        {
          "indexed": false,
          "internalType": "uint256",
          "name": "milestoneNumber",
          "type": "uint256"
        },
        {
          "indexed": false,
          "internalType": "address",
          "name": "voter",
          "type": "address"
        },
        {
          "indexed": false,
          "internalType": "bool",
          "name": "vote",
          "type": "bool"
        }
      ],
      "name": "MilestoneVoted",
      "type": "event"
    },
    {
      "inputs": [
        {
          "internalType": "uint256",
          "name": "",
          "type": "uint256"
        }
      ],
      "name": "campaignMilestoneCount",
      "outputs": [
        {
          "internalType": "uint256",
          "name": "",
          "type": "uint256"
        }
      ],
      "stateMutability": "view",
      "type": "function"
    },
    {
      "inputs": [
        {
          "internalType": "uint256",
          "name": "",
          "type": "uint256"
        }
      ],
      "name": "campaigns",
      "outputs": [
        {
          "internalType": "address",
          "name": "owner",
          "type": "address"
        },
        {
          "internalType": "string",
          "name": "title",
          "type": "string"
        },
        {
          "internalType": "string",
          "name": "description",
          "type": "string"
        },
        {
          "internalType": "uint256",
          "name": "target",
          "type": "uint256"
        },
        {
          "internalType": "uint256",
          "name": "deadline",
          "type": "uint256"
        },
        {
          "internalType": "uint256",
          "name": "amountCollected",
          "type": "uint256"
        },
        {
          "internalType": "uint256",
          "name": "amountReleased",
          "type": "uint256"
        },
        {
          "internalType": "string",
          "name": "image",
          "type": "string"
        },
        {
          "internalType": "uint8",
          "name": "state",
          "type": "uint8"
        },
        {
          "internalType": "uint256",
          "name": "createdAt",
          "type": "uint256"
        },
        {
          "internalType": "uint256",
          "name": "numMilestones",
          "type": "uint256"
        }
      ],
      "stateMutability": "view",
      "type": "function"
    },
    {
      "inputs": [
        {
          "internalType": "string",
          "name": "_title",
          "type": "string"
        },
        {
          "internalType": "string",
          "name": "_description",
          "type": "string"
        },
        {
          "internalType": "uint256",
          "name": "_target",
          "type": "uint256"
        },
        {
          "internalType": "uint256",
          "name": "_deadline",
          "type": "uint256"
        },
        {
          "internalType": "string",
          "name": "_image",
          "type": "string"
        },
        {
          "internalType": "uint256",
          "name": "_numMilestones",
          "type": "uint256"
        }
      ],
      "name": "createCampaign",
      "outputs": [
        {
          "internalType": "uint256",
          "name": "",
          "type": "uint256"
        }
      ],
      "stateMutability": "nonpayable",
      "type": "function"
    },
    {
      "inputs": [
        {
          "internalType": "uint256",
          "name": "_id",
          "type": "uint256"
        }
      ],
      "name": "deleteCampaign",
      "outputs": [],
      "stateMutability": "nonpayable",
      "type": "function"
    },
    {
      "inputs": [
        {
          "internalType": "uint256",
          "name": "_id",
          "type": "uint256"
        }
      ],
      "name": "donateToCampaign",
      "outputs": [],
      "stateMutability": "payable",
      "type": "function"
    },
    {
      "inputs": [
        {
          "internalType": "uint256",
          "name": "_campaignId",
          "type": "uint256"
        },
        {
          "internalType": "uint256",
          "name": "_milestoneNumber",
          "type": "uint256"
        }
      ],
      "name": "finalizeMilestoneVoting",
      "outputs": [],
      "stateMutability": "nonpayable",
      "type": "function"
    },
    {
      "inputs": [
        {
          "internalType": "uint256",
          "name": "_id",
          "type": "uint256"
        }
      ],
      "name": "getCampaignInfo",
      "outputs": [
        {
          "internalType": "address",
          "name": "",
          "type": "address"
        },
        {
          "internalType": "uint256",
          "name": "",
          "type": "uint256"
        },
        {
          "internalType": "uint256",
          "name": "",
          "type": "uint256"
        },
        {
          "internalType": "uint256",
          "name": "",
          "type": "uint256"
        },
        {
          "internalType": "uint8",
          "name": "",
          "type": "uint8"
        },
        {
          "internalType": "uint256",
          "name": "",
          "type": "uint256"
        }
      ],
      "stateMutability": "view",
      "type": "function"
    },
    {
      "inputs": [],
      "name": "getCampaigns",
      "outputs": [
        {
          "internalType": "uint256[]",
          "name": "",
          "type": "uint256[]"
        },
        {
          "internalType": "address[]",
          "name": "",
          "type": "address[]"
        },
        {
          "internalType": "uint256[]",
          "name": "",
          "type": "uint256[]"
        },
        {
          "internalType": "uint256[]",
          "name": "",
          "type": "uint256[]"
        }
      ],
      "stateMutability": "view",
      "type": "function"
    },
    {
      "inputs": [
        {
          "internalType": "uint256",
          "name": "_id",
          "type": "uint256"
        }
      ],
      "name": "getDonators",
      "outputs": [
        {
          "internalType": "address[]",
          "name": "",
          "type": "address[]"
        },
        {
          "internalType": "uint256[]",
          "name": "",
          "type": "uint256[]"
        }
      ],
      "stateMutability": "view",
      "type": "function"
    },
    {
      "inputs": [
        {
          "internalType": "uint256",
          "name": "_campaignId",
          "type": "uint256"
        }
      ],
      "name": "getFullCampaignData",
      "outputs": [
        {
          "internalType": "uint256",
          "name": "",
          "type": "uint256"
        },
        {
          "internalType": "address",
          "name": "",
          "type": "address"
        },
        {
          "internalType": "string",
          "name": "",
          "type": "string"
        },
        {
          "internalType": "string",
          "name": "",
          "type": "string"
        },
        {
          "internalType": "uint256",
          "name": "",
          "type": "uint256"
        },
        {
          "internalType": "uint256",
          "name": "",
          "type": "uint256"
        },
        {
          "internalType": "uint256",
          "name": "",
          "type": "uint256"
        },
        {
          "internalType": "uint256",
          "name": "",
          "type": "uint256"
        },
        {
          "internalType": "string",
          "name": "",
          "type": "string"
        },
        {
          "internalType": "uint8",
          "name": "",
          "type": "uint8"
        },
        {
          "internalType": "uint256",
          "name": "",
          "type": "uint256"
        }
      ],
      "stateMutability": "view",
      "type": "function"
    },
    {
      "inputs": [
        {
          "internalType": "uint256",
          "name": "_campaignId",
          "type": "uint256"
        },
        {
          "internalType": "uint256",
          "name": "_milestoneNumber",
          "type": "uint256"
        }
      ],
      "name": "getMilestone",
      "outputs": [
        {
          "internalType": "uint256",
          "name": "",
          "type": "uint256"
        },
        {
          "internalType": "uint8",
          "name": "",
          "type": "uint8"
        },
        {
          "internalType": "uint256",
          "name": "",
          "type": "uint256"
        },
        {
          "internalType": "uint256",
          "name": "",
          "type": "uint256"
        },
        {
          "internalType": "uint256",
          "name": "",
          "type": "uint256"
        }
      ],
      "stateMutability": "view",
      "type": "function"
    },
    {
      "inputs": [
        {
          "internalType": "uint256",
          "name": "_campaignId",
          "type": "uint256"
        },
        {
          "internalType": "uint256",
          "name": "_milestoneNumber",
          "type": "uint256"
        },
        {
          "internalType": "address",
          "name": "_donator",
          "type": "address"
        }
      ],
      "name": "hasDonatorVoted",
      "outputs": [
        {
          "internalType": "bool",
          "name": "",
          "type": "bool"
        }
      ],
      "stateMutability": "view",
      "type": "function"
    },
    {
      "inputs": [
        {
          "internalType": "uint256",
          "name": "",
          "type": "uint256"
        },
        {
          "internalType": "uint256",
          "name": "",
          "type": "uint256"
        },
        {
          "internalType": "address",
          "name": "",
          "type": "address"
        }
      ],
      "name": "hasVoted",
      "outputs": [
        {
          "internalType": "bool",
          "name": "",
          "type": "bool"
        }
      ],
      "stateMutability": "view",
      "type": "function"
    },
    {
      "inputs": [
        {
          "internalType": "uint256",
          "name": "",
          "type": "uint256"
        },
        {
          "internalType": "uint256",
          "name": "",
          "type": "uint256"
        }
      ],
      "name": "milestoneAmounts",
      "outputs": [
        {
          "internalType": "uint256",
          "name": "",
          "type": "uint256"
        }
      ],
      "stateMutability": "view",
      "type": "function"
    },
    {
      "inputs": [
        {
          "internalType": "uint256",
          "name": "",
          "type": "uint256"
        },
        {
          "internalType": "uint256",
          "name": "",
          "type": "uint256"
        }
      ],
      "name": "milestoneStates",
      "outputs": [
        {
          "internalType": "uint8",
          "name": "",
          "type": "uint8"
        }
      ],
      "stateMutability": "view",
      "type": "function"
    },
    {
      "inputs": [
        {
          "internalType": "uint256",
          "name": "",
          "type": "uint256"
        },
        {
          "internalType": "uint256",
          "name": "",
          "type": "uint256"
        }
      ],
      "name": "milestoneSubmissions",
      "outputs": [
        {
          "internalType": "uint256",
          "name": "",
          "type": "uint256"
        }
      ],
      "stateMutability": "view",
      "type": "function"
    },
    {
      "inputs": [
        {
          "internalType": "uint256",
          "name": "",
          "type": "uint256"
        },
        {
          "internalType": "uint256",
          "name": "",
          "type": "uint256"
        }
      ],
      "name": "milestoneVotesAgainst",
      "outputs": [
        {
          "internalType": "uint256",
          "name": "",
          "type": "uint256"
        }
      ],
      "stateMutability": "view",
      "type": "function"
    },
    {
      "inputs": [
        {
          "internalType": "uint256",
          "name": "",
          "type": "uint256"
        },
        {
          "internalType": "uint256",
          "name": "",
          "type": "uint256"
        }
      ],
      "name": "milestoneVotesFor",
      "outputs": [
        {
          "internalType": "uint256",
          "name": "",
          "type": "uint256"
        }
      ],
      "stateMutability": "view",
      "type": "function"
    },
    {
      "inputs": [],
      "name": "numberOfCampaigns",
      "outputs": [
        {
          "internalType": "uint256",
          "name": "",
          "type": "uint256"
        }
      ],
      "stateMutability": "view",
      "type": "function"
    },
    {
      "inputs": [
        {
          "internalType": "address",
          "name": "",
          "type": "address"
        },
        {
          "internalType": "uint256",
          "name": "",
          "type": "uint256"
        }
      ],
      "name": "startupCampaigns",
      "outputs": [
        {
          "internalType": "uint256",
          "name": "",
          "type": "uint256"
        }
      ],
      "stateMutability": "view",
      "type": "function"
    },
    {
      "inputs": [
        {
          "internalType": "uint256",
          "name": "_campaignId",
          "type": "uint256"
        },
        {
          "internalType": "uint256",
          "name": "_milestoneNumber",
          "type": "uint256"
        }
      ],
      "name": "submitMilestoneProof",
      "outputs": [],
      "stateMutability": "nonpayable",
      "type": "function"
    },
    {
      "inputs": [
        {
          "internalType": "uint256",
          "name": "_campaignId",
          "type": "uint256"
        },
        {
          "internalType": "uint256",
          "name": "_milestoneNumber",
          "type": "uint256"
        },
        {
          "internalType": "bool",
          "name": "_approve",
          "type": "bool"
        }
      ],
      "name": "voteMilestone",
      "outputs": [],
      "stateMutability": "nonpayable",
      "type": "function"
    }
  ],
  "bytecode": "0x6080604052600060095534801561001557600080fd5b50611d55806100256000396000f3fe6080604052600436106101355760003560e01c806383716004116100ab578063a6b036331161006f578063a6b03633146104a8578063b27541f7146104cd578063e0f4f020146104ed578063e38e2b8214610525578063e6553930146105be578063eb2004a5146105f557600080fd5b80638371600414610340578063880111b5146103605780638ed9895c14610398578063918cb241146104505780639bb4f7231461047057600080fd5b806321cd07e9116100fd57806321cd07e9146102465780633317b0481461029357806342a4fda8146102b557806346fe1aa1146102c8578063593e7e7e14610300578063759701931461032057600080fd5b806307ca140d1461013a5780630d39a1d3146101635780630fa91fa9146101b4578063141961bc146101e257806314f77be014610219575b600080fd5b34801561014657600080fd5b5061015060095481565b6040519081526020015b60405180910390f35b34801561016f57600080fd5b506101a461017e3660046117e2565b600760209081526000938452604080852082529284528284209052825290205460ff1681565b604051901515815260200161015a565b3480156101c057600080fd5b506101d46101cf366004611817565b610642565b60405161015a9291906118a4565b3480156101ee57600080fd5b506102026101fd366004611817565b610711565b60405161015a9b9a9998979695949392919061191f565b34801561022557600080fd5b50610150610234366004611817565b60086020526000908152604090205481565b34801561025257600080fd5b506101a46102613660046117e2565b60009283526007602090815260408085209385529281528284206001600160a01b039290921684525290205460ff1690565b34801561029f57600080fd5b506102b36102ae3660046119ae565b61090c565b005b6102b36102c3366004611817565b610a33565b3480156102d457600080fd5b506101506102e33660046119ae565b600260209081526000928352604080842090915290825290205481565b34801561030c57600080fd5b5061015061031b366004611a73565b610b4d565b34801561032c57600080fd5b506102b361033b366004611817565b610d2b565b34801561034c57600080fd5b506102b361035b3660046119ae565b610e0b565b34801561036c57600080fd5b5061015061037b3660046119ae565b600560209081526000928352604080842090915290825290205481565b3480156103a457600080fd5b506104266103b33660046119ae565b60008281526002602090815260408083208484528252808320548584526003835281842085855283528184205486855260048452828520868652845282852054878652600585528386208787528552838620549786526006855283862096865295909352922054919460ff909116939190565b6040805195865260ff9094166020860152928401919091526060830152608082015260a00161015a565b34801561045c57600080fd5b506102b361046b366004611b17565b61103e565b34801561047c57600080fd5b5061015061048b3660046119ae565b600660209081526000928352604080842090915290825290205481565b3480156104b457600080fd5b506104bd611298565b60405161015a9493929190611b55565b3480156104d957600080fd5b506101506104e8366004611bad565b6114bb565b3480156104f957600080fd5b506101506105083660046119ae565b600460209081526000928352604080842090915290825290205481565b34801561053157600080fd5b50610584610540366004611817565b60009081526020819052604090208054600382015460058301546006840154600a850154600c909501546001600160a01b039094169592949193909260ff90921691565b604080516001600160a01b039097168752602087019590955293850192909252606084015260ff16608083015260a082015260c00161015a565b3480156105ca57600080fd5b506105de6105d9366004611817565b6114ec565b60405161015a9b9a99989796959493929190611bd7565b34801561060157600080fd5b506106306106103660046119ae565b600360209081526000928352604080842090915290825290205460ff1681565b60405160ff909116815260200161015a565b600081815260208181526040918290206008810180548451818502810185019095528085526060948594929360090192909184918301828280156106af57602002820191906000526020600020905b81546001600160a01b03168152600190910190602001808311610691575b505050505091508080548060200260200160405190810160405280929190818152602001828054801561070157602002820191906000526020600020905b8154815260200190600101908083116106ed575b5050505050905091509150915091565b600060208190529081526040902080546001820180546001600160a01b03909216929161073d90611c63565b80601f016020809104026020016040519081016040528092919081815260200182805461076990611c63565b80156107b65780601f1061078b576101008083540402835291602001916107b6565b820191906000526020600020905b81548152906001019060200180831161079957829003601f168201915b5050505050908060020180546107cb90611c63565b80601f01602080910402602001604051908101604052809291908181526020018280546107f790611c63565b80156108445780601f1061081957610100808354040283529160200191610844565b820191906000526020600020905b81548152906001019060200180831161082757829003601f168201915b50505050509080600301549080600401549080600501549080600601549080600701805461087190611c63565b80601f016020809104026020016040519081016040528092919081815260200182805461089d90611c63565b80156108ea5780601f106108bf576101008083540402835291602001916108ea565b820191906000526020600020905b8154815290600101906020018083116108cd57829003601f168201915b50505050600a830154600b840154600c90940154929360ff909116929091508b565b6000828152602081905260409020546001600160a01b0316331461092f57600080fd5b6000828152602081905260409020600c0154811061094c57600080fd5b600082815260036020908152604080832084845290915290205460ff161580610990575060008281526003602081815260408084208585529091529091205460ff16145b61099957600080fd5b60008281526003602090815260408083208484528252808320805460ff1916600117905584835260048252808320848452825280832083905584835260058252808320848452825280832083905584835260068252808320848452825291829020429055905182815283917f26cf581e2709e0615164af15a371b2dd10fb48d5baed91e9eacd557633c16bcb910160405180910390a25050565b60003411610a4057600080fd5b6000818152602081905260409020600a015460ff1660011480610a7757506000818152602081905260409020600a015460ff166002145b610a8057600080fd5b60008181526020819052604090206003810154600590910154610aa4903490611cb4565b1115610aaf57600080fd5b6000818152602081815260408220600881018054600181810183559185528385200180546001600160a01b0319163317905560098201805491820181558452918320349201829055838352600501805491929091610b0e908490611cb4565b9091555050604051348152339082907f0b5b4c52969ff7329ecf7ee536409fda87812b15a8622bc6e8cdeab3aee14a269060200160405180910390a350565b6000428411610b5b57600080fd5b600082118015610b6c5750600a8211155b610b7557600080fd5b60095460008181526020818152604090912080546001600160a01b031916331781558951610bab926001909201918b019061172d565b506000818152602081815260409091208851610bcf926002909201918a019061172d565b50600081815260208181526040822060038101899055600481018890556005810183905560068101929092558551610c0d926007019187019061172d565b506000818152602081905260408120600a8101805460ff1916600217905542600b820155600c01849055610c418488611ccc565b905060005b84811015610cbe5760008381526002602090815260408083208484528252808320859055858352600382528083208484528252808320805460ff191690558583526004825280832084845282528083208390558583526005825280832084845290915281205580610cb681611cee565b915050610c46565b5033600090815260016020818152604083208054928301815583528220018390556009805491610ced83611cee565b9091555050604051339083907f633109eec20320eded000fc1e2634211aa7e92ba3f5b15faf6dcdafca05094e490600090a350979650505050505050565b6000818152602081905260409020546001600160a01b03163314610d835760405162461bcd60e51b815260206004820152600a60248201526927b7363c9037bbb732b960b11b60448201526064015b60405180910390fd5b60008181526020819052604090206008015415610df05760405162461bcd60e51b815260206004820152602560248201527f43616e6e6f742064656c6574652063616d706169676e207769746820646f6e6160448201526474696f6e7360d81b6064820152608401610d7a565b6000908152602081905260409020600a01805460ff19169055565b600082815260036020908152604080832084845290915290205460ff16600114610e3457600080fd5b6000828152600460209081526040808320848452825280832054858452600583528184208585529092528220549091610e6d8284611cb4565b600086815260208190526040902060080154909150610e8d600282611ccc565b821015610ece5760405162461bcd60e51b815260206004820152600f60248201526e4e656564206d6f726520766f74657360881b6044820152606401610d7a565b82841115610fdd5760008681526003602090815260408083208884528252808320805460ff191660029081179091558984528252808320888452825280832054898452918390528220600601805491928392610f2b908490611cb4565b90915550506000878152602081905260408082205490516001600160a01b039091169083908381818185875af1925050503d8060008114610f88576040519150601f19603f3d011682016040523d82523d6000602084013e610f8d565b606091505b5050905080610f9b57600080fd5b604080518881526020810184905289917f6e3fd8bb18eed6833ae758e07c361bf145ce27c88bdf6d5029ddabf188d72ca6910160405180910390a25050611036565b6000868152600360208181526040808420898552825292839020805460ff1916909217909155905186815287917f4e2fd11f84344693b41d2aba9910e33b34a4f02d4d3a65b65b2201f3c8fa3c89910160405180910390a25b505050505050565b600954831061104c57600080fd5b6000838152602081905260409020600c0154821061106957600080fd5b600083815260036020908152604080832085845290915290205460ff1660011461109257600080fd5b6000838152600760209081526040808320858452825280832033845290915290205460ff16156110c157600080fd5b6000838152602081815260408083206008018054825181850281018501909352808352919290919083018282801561112257602002820191906000526020600020905b81546001600160a01b03168152600190910190602001808311611104575b505050505090506000805b825181101561118457336001600160a01b031683828151811061115257611152611d09565b60200260200101516001600160a01b031614156111725760019150611184565b8061117c81611cee565b91505061112d565b50806111c25760405162461bcd60e51b815260206004820152600d60248201526c4f6e6c7920646f6e61746f727360981b6044820152606401610d7a565b600085815260076020908152604080832087845282528083203384529091529020805460ff191660011790558215611223576000858152600460209081526040808320878452909152812080549161121983611cee565b919050555061124e565b6000858152600560209081526040808320878452909152812080549161124883611cee565b91905055505b6040805185815233602082015284151581830152905186917fab85204cc3f4a5213aaeac56baec47b9fe23ddb7ee575fe3f6d6f2b6226bf830919081900360600190a25050505050565b606080606080600060095467ffffffffffffffff8111156112bb576112bb6119d0565b6040519080825280602002602001820160405280156112e4578160200160208202803683370190505b509050600060095467ffffffffffffffff811115611304576113046119d0565b60405190808252806020026020018201604052801561132d578160200160208202803683370190505b509050600060095467ffffffffffffffff81111561134d5761134d6119d0565b604051908082528060200260200182016040528015611376578160200160208202803683370190505b509050600060095467ffffffffffffffff811115611396576113966119d0565b6040519080825280602002602001820160405280156113bf578160200160208202803683370190505b50905060005b6009548110156114ac57808582815181106113e2576113e2611d09565b602090810291909101810191909152600082815290819052604090205484516001600160a01b039091169085908390811061141f5761141f611d09565b6001600160a01b039092166020928302919091018201526000828152908190526040902060030154835184908390811061145b5761145b611d09565b6020026020010181815250506000808281526020019081526020016000206005015482828151811061148f5761148f611d09565b6020908102919091010152806114a481611cee565b9150506113c5565b50929791965094509092509050565b600160205281600052604060002081815481106114d757600080fd5b90600052602060002001600091509150505481565b600080606080600080600080606060008060008060008e815260200190815260200160002090508c8160000160009054906101000a90046001600160a01b0316826001018360020184600301548560040154866005015487600601548860070189600a0160009054906101000a900460ff168a600c015488805461156f90611c63565b80601f016020809104026020016040519081016040528092919081815260200182805461159b90611c63565b80156115e85780601f106115bd576101008083540402835291602001916115e8565b820191906000526020600020905b8154815290600101906020018083116115cb57829003601f168201915b505050505098508780546115fb90611c63565b80601f016020809104026020016040519081016040528092919081815260200182805461162790611c63565b80156116745780601f1061164957610100808354040283529160200191611674565b820191906000526020600020905b81548152906001019060200180831161165757829003601f168201915b5050505050975082805461168790611c63565b80601f01602080910402602001604051908101604052809291908181526020018280546116b390611c63565b80156117005780601f106116d557610100808354040283529160200191611700565b820191906000526020600020905b8154815290600101906020018083116116e357829003601f168201915b505050505092509b509b509b509b509b509b509b509b509b509b509b505091939597999b90929496989a50565b82805461173990611c63565b90600052602060002090601f01602090048101928261175b57600085556117a1565b82601f1061177457805160ff19168380011785556117a1565b828001600101855582156117a1579182015b828111156117a1578251825591602001919060010190611786565b506117ad9291506117b1565b5090565b5b808211156117ad57600081556001016117b2565b80356001600160a01b03811681146117dd57600080fd5b919050565b6000806000606084860312156117f757600080fd5b833592506020840135915061180e604085016117c6565b90509250925092565b60006020828403121561182957600080fd5b5035919050565b600081518084526020808501945080840160005b838110156118695781516001600160a01b031687529582019590820190600101611844565b509495945050505050565b600081518084526020808501945080840160005b8381101561186957815187529582019590820190600101611888565b6040815260006118b76040830185611830565b82810360208401526118c98185611874565b95945050505050565b6000815180845260005b818110156118f8576020818501810151868301820152016118dc565b8181111561190a576000602083870101525b50601f01601f19169290920160200192915050565b6001600160a01b038c168152610160602082018190526000906119448382018e6118d2565b90508281036040840152611958818d6118d2565b90508a60608401528960808401528860a08401528760c084015282810360e084015261198481886118d2565b60ff9690961661010084015250506101208101929092526101409091015298975050505050505050565b600080604083850312156119c157600080fd5b50508035926020909101359150565b634e487b7160e01b600052604160045260246000fd5b600082601f8301126119f757600080fd5b813567ffffffffffffffff80821115611a1257611a126119d0565b604051601f8301601f19908116603f01168101908282118183101715611a3a57611a3a6119d0565b81604052838152866020858801011115611a5357600080fd5b836020870160208301376000602085830101528094505050505092915050565b60008060008060008060c08789031215611a8c57600080fd5b863567ffffffffffffffff80821115611aa457600080fd5b611ab08a838b016119e6565b97506020890135915080821115611ac657600080fd5b611ad28a838b016119e6565b965060408901359550606089013594506080890135915080821115611af657600080fd5b50611b0389828a016119e6565b92505060a087013590509295509295509295565b600080600060608486031215611b2c57600080fd5b833592506020840135915060408401358015158114611b4a57600080fd5b809150509250925092565b608081526000611b686080830187611874565b8281036020840152611b7a8187611830565b90508281036040840152611b8e8186611874565b90508281036060840152611ba28185611874565b979650505050505050565b60008060408385031215611bc057600080fd5b611bc9836117c6565b946020939093013593505050565b8b81526001600160a01b038b16602082015261016060408201819052600090611c028382018d6118d2565b90508281036060840152611c16818c6118d2565b90508960808401528860a08401528760c08401528660e0840152828103610100840152611c4381876118d2565b60ff95909516610120840152505061014001529998505050505050505050565b600181811c90821680611c7757607f821691505b60208210811415611c9857634e487b7160e01b600052602260045260246000fd5b50919050565b634e487b7160e01b600052601160045260246000fd5b60008219821115611cc757611cc7611c9e565b500190565b600082611ce957634e487b7160e01b600052601260045260246000fd5b500490565b6000600019821415611d0257611d02611c9e565b5060010190565b634e487b7160e01b600052603260045260246000fdfea2646970667358221220930634532137e7bfc78706bc1a259213b65b37ad2b09e1444d4dc03ee9f5bcd164736f6c63430008090033",
  "linkReferences": {},
  "deployedLinkReferences": {}
}